{
  "contractName": "Buy",
  "abi": [
    {
      "constant": false,
      "inputs": [
        {
          "name": "carid",
          "type": "uint256"
        }
      ],
      "name": "buy",
      "outputs": [
        {
          "name": "",
          "type": "uint256"
        }
      ],
      "payable": false,
      "stateMutability": "nonpayable",
      "type": "function"
    },
    {
      "constant": true,
      "inputs": [
        {
          "name": "",
          "type": "uint256"
        }
      ],
      "name": "buyers",
      "outputs": [
        {
          "name": "",
          "type": "address"
        }
      ],
      "payable": false,
      "stateMutability": "view",
      "type": "function"
    },
    {
      "constant": true,
      "inputs": [],
      "name": "getBuyers",
      "outputs": [
        {
          "name": "",
          "type": "address[100]"
        }
      ],
      "payable": false,
      "stateMutability": "view",
      "type": "function"
    }
  ],
  "bytecode": "0x6060604052341561000f57600080fd5b6102c18061001e6000396000f300606060405260043610610057576000357c0100000000000000000000000000000000000000000000000000000000900463ffffffff168063d96a094a1461005c578063f2aa821814610093578063f64bfaba146100f6575b600080fd5b341561006757600080fd5b61007d6004808035906020019091905050610147565b6040518082815260200191505060405180910390f35b341561009e57600080fd5b6100b460048080359060200190919050506101a0565b604051808273ffffffffffffffffffffffffffffffffffffffff1673ffffffffffffffffffffffffffffffffffffffff16815260200191505060405180910390f35b341561010157600080fd5b6101096101d5565b6040518082606460200280838360005b83811015610134578082015181840152602081019050610119565b5050505090500191505060405180910390f35b60003360008360648110151561015957fe5b0160006101000a81548173ffffffffffffffffffffffffffffffffffffffff021916908373ffffffffffffffffffffffffffffffffffffffff160217905550819050919050565b6000816064811015156101af57fe5b016000915054906101000a900473ffffffffffffffffffffffffffffffffffffffff1681565b6101dd610256565b600060648060200260405190810160405280929190826064801561024c576020028201915b8160009054906101000a900473ffffffffffffffffffffffffffffffffffffffff1673ffffffffffffffffffffffffffffffffffffffff1681526020019060010190808311610202575b5050505050905090565b610c80604051908101604052806064905b600073ffffffffffffffffffffffffffffffffffffffff1681526020019060019003908161026757905050905600a165627a7a7230582094d22e49c9de2048be611efd17914f129fe969e252fa750aa3768a641b635c7e0029",
  "source": "pragma solidity ^0.4.17;\n\ncontract Buy {\n\naddress[100] public buyers;\n\nfunction buy(uint carid) public returns (uint) {\n\n    buyers[carid] = msg.sender;\n    return carid;\n    \n    }\n function getBuyers() public view returns (address[100]) {\n\n     return buyers;\n }\n\n}",
  "sourcePath": "/home/gintu/cryptoassets/contracts/Buy.sol",
  "compiler": {
    "name": "solc",
    "version": "0.4.18+commit.9cf6e910.Emscripten.clang"
  },
  "schemaVersion": "1.0.1",
  "updatedAt": "2018-02-19T18:15:33.820Z"
}